:10068C00022404CC02460666022204440231011103
:10069C00023F00000244000002260000C187C10294
:1006AC00C104C10CC188C10AC10BC106C109C10179
:1006BC00C10EC100C10DC105C103012800013E00DE
:1006CC0008290000000000000000034100000006A3
:1006DC0033AA5502FE0100043900000000013D0060
:03000B00020026CA
:10002600C0E0C0D0E53ED3943B4009753E00D20BFC
:0B003600C2A98002053ED0D0D0E0320D
:1006ED00D3E5409523E53F9522403E30933BE47F93
:1006FD00507EC3FDFCAB3CAA3BA93AA839D31202EC
:10070D00AA400FE4F53CF53BF53AF539D20553E136
:10071D00FE22E53C2401F53CE4353BF53BE4353A5E
:0E072D00F53AE43539F5398000C2EFD2EE22FC
:10078900C3E5409532E53F9531503D30933AE47FDA
:10079900507EC3FDFCAB3CAA3BA93AA8391202AA78
:1007A900400FE4F53CF53BF53AF539D20353E1FE48
:1007B90022E53C2401F53CE4353BF53BE4353AF5CB
:0D07C9003AE43539F5398000C2EFD2EE2256
:03005B000204EEAE
:1004EE00C0E0C0F0C083C082C0D075D000C000C0D4
:1004FE0001C002C003C004C005C006C007AFC3756B
:10050E003F008F40E540C4F8540FC868F540E53F02
:10051E00C454F048F53FE5C2540F4240E4A202B382
:10052E0050051202CE800B2092051206ED800312AA
:10053E000789D007D006D005D004D003D002D00151
:0D054E00D000D0D0D082D083D0F0D0E032E9
:030023000205C40F
:1005C400C0E0C0F0C083C082C0D075D000C000C0FD
:1005D40001C002C003C004C005C006C0073098248F
:1005E400E528D394074003752800120003742925D5
:1005F40028F8A607E528B40707752800D20A800260
:100604000528C298309902C299D007D006D005D0E7
:1006140004D003D002D001D000D0D0D082D083D077
:04062400F0D0E03200
:03007B00020A0E68
:060A0E0030F902C2F932CA
:1002CE00300813D3E5409547E53F95464008D20CDC
:1002DE00C29353E1FE22A204B35057C3E5409525C5
:1002EE00E53F9524504CD201A201300E01B3500BC4
:1002FE00E4F53CF53BF53AF5398015E53C2401F57E
:10030E003CE4353BF53BE4353AF53AE43539F5391D
:10031E00E47F357E82FDFCAB3CAA3BA93AA839D3DB
:10032E001202AA400FD204E4F53CF53BF53AF5393A
:10033E008002C201A201920E30045CD3E5409547C3
:10034E00E53F95464051D200A200300D01B3500B4F
:10035E00E4F53CF53BF53AF5398015E53C2401F51D
:10036E003CE4353BF53BE4353AF53AE43539F539BD
:10037E00E47F357E82FDFCAB3CAA3BA93AA839D37B
:10038E001202AA4014D20CC293E4F53CF53BF53AA6
:10039E00F53953E1FE8002C200A200920DA20CB309
:0703AE005004C2EFD2EE2261
:1009510053B3FE43B40153B3FD43B40253B3FB435A
:10096100B40453B3F743B40853B1F753B2F753B1D7
:10097100EF53B2EFD283D28453E8F043B38053B440
:100981007FE4F5F643F60143E10143DF0143DF0272
:0409910043DF04221A
:10000E00C20BE4F528538EF7438901F58AF58CD29D
:04001E00A9D28C22B5
:050A1400C28CC2A92202
:1009CE00C292C290C2917F327E007D007C001208DE
:0409DE00BBC29322E3
:10005E00300706C291D2908004C290D291C208C2DB
:0B006E0002C20CC20443E101D2EE22EA
:10004100E4F50A7433250AF8E6FF1209F6050AE514
:060051000AD3940540ED06
:010057002286
:10007E00E4F508F509D207D2021209CE7FE87E0315
:10008E007D007C001208BBE4F53D300753E53DC30F
:10009E009423504CC20A12000E120041A20AB35011
:1000AE0005A20BB340F6120A14300B02C207300A37
:1000BE0006750800852E09E509750900F508E52D78
:1000CE004209D3E50994C8E5086480948040028013
:1000DE000F053D7F5E7E017D007C001208BB80AA6D
:1000EE00A207B3400CE50994C8E5086480948050DB
:1000FE0005C2070201D8D2937FDC7E057D007C000D
:10010E001208BBD2907FF47E017D007C001208BBEA
:10011E007FF47E017D007C001208BBC2902083FD1F
:10012E00C20543E101C2EFD2EE43E101A205B340A5
:10013E00FBD292C20343E101C2EFD2EE43E101A230
:10014E0003B340FB7FE87E037D007C001208BBC238
:10015E000A12000E120041A20AB35005A20BB340C0
:10016E00F6120A14300B02C207300A127508008507
:10017E002E09E509750900F508E52D4209E4A207E7
:10018E00B3400DD3E5099414E50864809480402BA8
:10019E007FDC7E057D007C001208BBC20712005E6C
:1001AE007FE87E037D007C001208BBC2927FC87E72
:1001BE00007D007C001208BBC29322C2927F647E37
:0D01CE00007D007C001208BBC29312005E91
:0101DB002201
:1009E200A2AF920FC2AF75C7AA75C755439F80A227
:0409F2000F92AF228F
:03005800C2912230
:1003B500A2AF920FC2AF75C7AA75C755439F01A2D9
:1003C5000F92AFA2AF920FC2AF75C7AA75C75543BB
:1003D500A504A20F92AFE4F5A7F5A675AEFD75AF1E
:1003E500E1A2AF920FC2AF75C7AA75C75543A40165
:1003F500A20F92AFA2AF920FC2AF75C7AA75C7552C
:10040500539FFEA20F92AF120951C290C291C292A0
:10041500C2937FE87E037D007C001208BBD2ACD27C
:100425009CD2AEC2EF43E101D2EED2AF7F007EC2D5
:100435007D017C00120995300C08D20253E1FE12B1
:10044500007E7FF47E017D007C001208BB2084E7DE
:0D04550030910512005880DF1209E280DAB4
:1009950053B1BF53B2BF53B17F53B27F7598504324
:1009A5008920438780438E1053C4DFAB07AA06A96D
:1009B50005A8047F407E427D0F7C00120218EF04DB
:0909C500F404F58DD28ED29922C2
:10055B008F118E108D0F8C0E53B1BF53B2BF53B191
:10056B007F53B27F75985043878053C4F843C420A0
:10057B00AB11AA10A90FA80E7F407E427D0F7C0005
:10058B00120218C374FF9FFF74FF9EFEE49DFDE4EF
:10059B009CFC78081202BB8FC6AB11AA10A90FA83E
:1005AB000E7F407E427D0F7C00120218C374FF9FAA
:0905BB00FF8FC543C408D2992248
:070003003098FDAF99C2988F
:01000A0022D3
:0809F600C2998F993099FD228E
:100628008F158E148D138C1253B1FB53B2FB53B339
:10063800BF53B4BF75F85075C40853C4DFAB15AACF
:1006480014A913A8127F407E427D0F7C0012021865
:10065800C374FF9FFF74FF9EFEE49DFDE49CFC783D
:10066800081202BB8FC6AB15AA14A913A8127F40A3
:100678007E427D0F7C00120218C374FF9FFF8FC556
:0406880043C408223D
:0709FE0030F8FDAF9AC2F8CA
:010A050022CE
:080A0600C2F98F9A30F9FD22BC
:100870008F198E188D178C16538EF7438901D28CE1
:10088000E4FFFEFDFCAB19AA18A917A816C31202B3
:10089000AA6025758A7E758CFF308DFDC28DE519A5
:1008A00024FFF519E51834FFF518E51734FFF5179F
:0B08B000E51634FFF51680C8C28C224C
:1008BB008F0D8E0C8D0B8C0A538EF7438901D28CC6
:1008CB00E4FFFEFDFCAB0DAA0CA90BA80AC3120298
:1008DB00AA6025758ACA758CFA308DFDC28DE50D1F
:1008EB0024FFF50DE50C34FFF50CE50B34FFF50B90
:0B08FB00E50A34FFF50A80C8C28C2219
:100906008F1D8E1C8D1B8C1A538EEF438910D28E31
:10091600E4FFFEFDFCAB1DAA1CA91BA81AC312020C
:10092600AA6025758BEA758DCB308FFDC28FE51DCC
:1009360024FFF51DE51C34FFF51CE51B34FFF51BF4
:0B094600E51A34FFF51A80C8C28E22AB
:10073B008F4B8E4A8D498C4853C9BF53C9DF43C970
:10074B0010D2CAE4FFFEFDFCAB4BAA4AA949A8484C
:10075B00C31202AA602575CC3075CDF830CFFDC21F
:10076B00CFE54B24FFF54BE54A34FFF54AE5493419
:0E077B00FFF549E54834FFF54880C8C2CA22A0
:1007D6008F4F8E4E8D4D8C4C75C40743C408E4FF75
:1007E600FEFDFCAB4FAA4EA94DA84CC31202AA604F
:1007F6002875C52C75C6CFE5C430E4FB53C4EFE5B8
:100806004F24FFF54FE54E34FFF54EE54D34FFF529
:0D0816004DE54C34FFF54C80C553C4F7226E
:100823008F538E528D518C5075C40743C408E4FF17
:10083300FEFDFCAB53AA52A951A850C31202AA60F1
:100843002875C5D875C6FFE5C430E4FB53C4EFE58E
:100853005324FFF553E55234FFF552E55134FFF5C8
:0D08630051E55034FFF55080C553C4F72215
:0300000002046295
:0C046200787FE4F6D8FD7581530204A9F0
:1001DC0075F008758200EF2FFFEE33FECD33CDCCDA
:1001EC0033CCC58233C5829BED9AEC99E58298405D
:1001FC000CF582EE9BFEED9AFDEC99FC0FD5F0D63A
:10020C00E4CEFBE4CDFAE4CCF9A88222B800C1B963
:10021C000059BA002DEC8BF084CFCECDFCE5F0CBA1
:10022C00F97818EF2FFFEE33FEED33FDEC33FCEBDA
:10023C0033FB10D703994004EB99FB0FD8E5E4F995
:10024C00FA227818EF2FFFEE33FEED33FDEC33FC82
:10025C00C933C910D7059BE99A4007EC9BFCE99A76
:10026C00F90FD8E0E4C9FAE4CCFB2275F010EF2FBB
:10027C00FFEE33FEED33FDCC33CCC833C810D707BB
:10028C009BEC9AE899400AED9BFDEC9AFCE899F8F6
:0E029C000FD5F0DAE4CDFBE4CCFAE4C8F92289
:1002AA00EB9FF5F0EA9E42F0E99D42F0E89C45F0AA
:0102BA002221
:1002BB00E8600FECC313FCED13FDEE13FEEF13FF21
:0302CB00D8F12245
:10046E000203B5E493A3F8E493A34003F68001F2EC
:10047E0008DFF48029E493A3F85407240CC8C3338F
:10048E00C4540F4420C8834004F456800146F6DF5E
:10049E00E4800B010204081020408090068CE47E5C
:1004AE00019360BCA3FF543F30E509541FFEE49353
:1004BE00A360010ECF54C025E060A840B8E493A31A
:1004CE00FAE493A3F8E493A3C8C582C8CAC583CA45
:1004DE00F0A3C8C582C8CAC583CADFE9DEE780BEFD
:0106EC00000D
:00000001FF
