:1005B60002120000021400000208000102100005E9
:1005C600020C0000020E0000020A0000C102C10077
:0605D600C101C104C18354
:03005B000201DCC3
:1001DC00C0E0C0F0C083C082C0D075D000C000C0E9
:1001EC0001C002C003C004C005C006C007AFC37580
:1001FC000C008F0DE50DC4F8540FC868F50DE50C17
:10020C00C454F048F50CE5C2540F420DE47F55126E
:10021C000606A200B350051204A18016D3E50D9575
:10022C0011E50C95104007D20253E1FE8004C2EF99
:10023C00D2EED007D006D005D004D003D002D00126
:0D024C00D000D0D0D082D083D0F0D0E032EE
:1004A100300311D3E50D9511E50C95104006D204EA
:1004B10053E1FE22C3E50D9509E50C95085004D2E0
:1004C100018002C201300110D3E50D9511E50C95B3
:1004D100104005D20453E1FEA204B35004C2EFD28E
:0204E100EE2209
:10058B0053B3FE43B40153B3FD43B40253B3FB4324
:10059B00B40453B3F743B40853E8F043B38053B4F4
:0B05AB007FE4F5F643F60143E1012276
:05060E00C290C2912220
:1005DD00300206C291D2908004C290D291C203C261
:0905ED0000C20443E101D2EE2238
:1004E300D20012060E7FE87E037D007C0012040B0F
:1004F300D2927FE87E037D007C0012040BC29243FC
:10050300E101D2EE7FE87E037D007C0012040BA2A2
:0A05130002B3500353E1FE0205DDC0
:1005560012058BC290C291C292C293D2AC439C0147
:10056600D2AED2AFC2EF43E101D2EE7F007EC27DB2
:10057600017C001202C2A200B350FB3004F8D20084
:050586001204E380F106
:10051D0053B1BF53B2BF53B17F53B27F75985043A0
:10052D008920438780438E1053C4DFAB07AA06A9E9
:10053D0005A8047F407E427D0F7C0012009AEF04D7
:09054D00F404F58DD28ED299223E
:100259008F198E188D178C1653B1BF53B2BF53B176
:100269007F53B27F75985043878053C4F843C420A5
:10027900AB19AA18A917A8167F407E427D0F7C00EA
:1002890012009AC374FF9FFF74FF9EFEE49DFDE474
:100299009CFC780812013D8FC6AB19AA18A917A8AA
:1002A900167F407E427D0F7C0012009AC374FF9F27
:0902B900FF8FC543C408D299224D
:070051003098FDAF99C29841
:010058002285
:0805F600C2998F993099FD2292
:1002C2008F348E338D328C3153B1FB53B2FB53B327
:1002D200BF53B4BF75F85075C40853C4DFAB34AA1A
:1002E20033A932A8317F407E427D0F7C0012009AF2
:1002F200C374FF9FFF74FF9EFEE49DFDE49CFC78A7
:100302000812013D8FC6AB34AA33A932A8317F400F
:100312007E427D0F7C0012009AC374FF9FFF8FC53F
:0403220043C40822A6
:0705FE0030F8FDAF9AC2F8CE
:0106050022D2
:08060600C2F98F9A30F9FD22C0
:1003C0008F1D8E1C8D1B8C1A538EF7438901D28C86
:1003D000E4FFFEFDFCAB1DAA1CA91BA81AC3120159
:1003E0002C6025758A7E758CFF308DFDC28DE51DD4
:1003F00024FFF51DE51C34FFF51CE51B34FFF51B40
:0B040000E51A34FFF51A80C8C28C22F8
:10040B008F348E338D328C31538EF7438901D28CDE
:10041B00E4FFFEFDFCAB34AA33A932A831C31201B1
:10042B002C6025758ACA758CFA308DFDC28DE5342A
:10043B0024FFF534E53334FFF533E53234FFF53281
:0B044B00E53134FFF53180C8C28C227F
:100456008F248E238D228C21538EEF438910D28ECA
:10046600E4FFFEFDFCAB24AA23A922A821C31201A6
:100476002C6025758BEA758DCB308FFDC28FE524F8
:1004860024FFF524E52334FFF523E52234FFF52286
:0B049600E52134FFF52180C8C28E2252
:100003008F288E278D268C2553C9BF53C9DF43C93B
:1000130010D2CAE4FFFEFDFCAB28AA27A926A82517
:10002300C312012C602575CC3075CDF830CFFDC2DD
:10003300CFE52824FFF528E52734FFF527E5263407
:0E004300FFF526E52534FFF52580C8C2CA2248
:100326008F2C8E2B8D2A8C2975C40743C408E4FFB5
:10033600FEFDFCAB2CAA2BA92AA829C312012C600E
:100346002875C52C75C6CFE5C430E4FB53C4EFE56C
:100356002C24FFF52CE52B34FFF52BE52A34FFF58D
:0D0366002AE52934FFF52980C553C4F7228C
:100373008F308E2F8D2E8C2D75C40743C408E4FF58
:10038300FEFDFCAB30AA2FA92EA82DC312012C60B1
:100393002875C5D875C6FFE5C430E4FB53C4EFE543
:1003A3003024FFF530E52F34FFF52FE52E34FFF52C
:0D03B3002EE52D34FFF52D80C553C4F72233
:03000000020150AA
:0C015000787FE4F6D8FD75813402019739
:10005E0075F008758200EF2FFFEE33FECD33CDCC59
:10006E0033CCC58233C5829BED9AEC99E5829840DC
:10007E000CF582EE9BFEED9AFDEC99FC0FD5F0D6B9
:10008E00E4CEFBE4CDFAE4CCF9A88222B800C1B9E3
:10009E000059BA002DEC8BF084CFCECDFCE5F0CB21
:1000AE00F97818EF2FFFEE33FEED33FDEC33FCEB5A
:1000BE0033FB10D703994004EB99FB0FD8E5E4F915
:1000CE00FA227818EF2FFFEE33FEED33FDEC33FC02
:1000DE00C933C910D7059BE99A4007EC9BFCE99AF6
:1000EE00F90FD8E0E4C9FAE4CCFB2275F010EF2F3B
:1000FE00FFEE33FEED33FDCC33CCC833C810D7073B
:10010E009BEC9AE899400AED9BFDEC9AFCE899F875
:0E011E000FD5F0DAE4CDFBE4CCFAE4C8F92208
:10012C00EB9FF5F0EA9E42F0E99D42F0E89C45F029
:01013C0022A0
:10013D00E8600FECC313FCED13FDEE13FEEF13FFA0
:03014D00D8F122C4
:10015C00020556E493A3F8E493A34003F68001F25E
:10016C0008DFF48029E493A3F85407240CC8C333A4
:10017C00C4540F4420C8834004F456800146F6DF73
:10018C00E4800B01020408102040809005B6E47E48
:10019C00019360BCA3FF543F30E509541FFEE49368
:1001AC00A360010ECF54C025E060A840B8E493A32F
:1001BC00FAE493A3F8E493A3C8C582C8CAC583CA5A
:1001CC00F0A3C8C582C8CAC583CADFE9DEE780BE12
:0105DC00001E
:00000001FF
