:1005C400022404CC0243066602220444023C0000D6
:1005D4000241000002260000C186C102C103C10B12
:1005E400C187C109C10AC105C108C101C10DC1004A
:1005F400C10CC104012800013B00082900000000CF
:1006040000000000033E0000000631AA5502FE016E
:0706140000043700000000A4
:03000B0002005E92
:10005E00C0E0C0D0E53BD3943B4009753B00D20ACB
:0B006E00C2A98002053BD0D0D0E032D8
:03005B0002035449
:10035400C0E0C0F0C083C082C0D075D000C000C06F
:1003640001C002C003C004C005C006C007AFC37506
:100374003C008F3DE53DC4F8540FC868F53DE53CAD
:10038400C454F048F53CE5C2540F423DE4A202B324
:10039400500512026D8051D3E53D9523E53C95222D
:1003A400404230933FE47F507EC3FDFCAB3AAA3910
:1003B400A938A837D31202494013753A0075390099
:1003C400753800753700D20453E1FE801BE53A24EA
:1003D40001F53AE43539F539E43538F538E435379B
:1003E400F5378000C2EFD2EED007D006D005D00496
:1003F400D003D002D001D000D0D0D082D083D0F0AE
:03040400D0E03213
:030023000204FCD8
:1004FC00C0E0C0F0C083C082C0D075D000C000C0C6
:10050C0001C002C003C004C005C006C00730982457
:10051C00E528D3940740037528001200037429259D
:10052C0028F8A607E528B40707752800D209800229
:10053C000528C298309902C299D007D006D005D0B0
:10054C0004D003D002D001D000D0D0D082D083D040
:04055C00F0D0E032C9
:03007B000208E296
:0608E20030F902C2F932F8
:10026D00300713D3E53D9544E53C95434008D20B4B
:10027D00C29353E1FE22A203B35057C3E53D95252A
:10028D00E53C9524504CD201A201300D01B3500B29
:10029D00E4F53AF539F538F5378015E53A2401F5E9
:1002AD003AE43539F539E43538F538E43537F5378D
:1002BD00E47F507EC3FDFCAB3AAA39A938A837D3E9
:1002CD00120249400FD203E4F53AF539F538F53706
:1002DD008002C201A201920D30035CD3E53D95442D
:1002ED00E53C95434051D200A200300C01B3500BB8
:1002FD00E4F53AF539F538F5378015E53A2401F589
:10030D003AE43539F539E43538F538E43537F5372C
:10031D00E47F507EC3FDFCAB3AAA39A938A837D388
:10032D001202494014D20BC293E4F53AF539F5386F
:10033D00F53753E1FE8002C200A200920CA20BB36E
:07034D005004C2EFD2EE22C2
:1008390053B3FE43B40153B3FD43B40253B3FB4373
:10084900B40453B3F743B40853B1F753B2F753B1F0
:10085900EF53B2EFD283D28453E8F043B38053B459
:100869007FE4F5F643F60143E10143DF0143DF028B
:0408790043DF042233
:10000E00C20AE4F528538EF7438901F58AF58CD29E
:04001E00A9D28C22B5
:0508E800C28CC2A92230
:0508ED00C290C291223F
:10002600C293300606C291D2908004C290D291C289
:0D00360007C202C20BC20343E101D2EE2259
:10004300E4F51274312512F8E6FF1208CA0512E529
:0600530012D3940540EDFC
:010059002284
:10007E00E4F508F509F50DF50CF50BF50AF511F596
:10008E0010F50FF50ED206D2021208ED7F587E1B28
:10009E00FDFC1207A3C20912000E120043A209B3FF
:1000AE005005A20AB340F61208E8300A02C2063022
:1000BE000911750800852E09E509750900F508E591
:1000CE002D4209A206B3400CE50994F4E5086480BC
:1000DE0094815005C206020177D2937FDC7E057DA6
:1000EE00007C001207A3D2927F2C7E017D007C0043
:1000FE001207A3C29243E101C2EFD2EE43E101C265
:10010E0004A204B340FBD2927FD07E077D007C0018
:10011E001207A3C20912000E120043A209B3500522
:10012E00A20AB340F61208E8300A02C206300912DB
:10013E00750800852E09E509750900F508E52D42BB
:10014E0009E4A206B3400DD3E5099414E5086480D2
:10015E00948040137FDC7E057D007C001207A3C2D5
:0C016E0006120026C29222C29212002645
:01017A002262
:1008B600A2AF920EC2AF75C7AA75C755439F80A255
:0408C6000E92AF22BD
:0308F200C291228E
:10061C00120839C290C291C292C2937FE87E037DC8
:10062C00007C001207A3D2ACD29CD2AEC2EF43E145
:10063C0001D2EED2AF7F007EC27D017C0012087D1C
:10064C00300B08D20253E1FE12007E7FF47E017D56
:10065C00007C001207A32083031200002084E11207
:04066C0008B680DC70
:10087D0053B1BF53B2BF53B17F53B27F759850433D
:10088D008920438780438E1053C4DFAB07AA06A986
:10089D0005A8047F407E427D0F7C001201B7EF0456
:0908AD00F404F58DD28ED29922DB
:100493008F198E188D178C1653B1BF53B2BF53B13A
:1004A3007F53B27F75985043878053C4F843C42069
:1004B300AB19AA18A917A8167F407E427D0F7C00AE
:1004C3001201B7C374FF9FFF74FF9EFEE49DFDE41A
:1004D3009CFC780812025A8FC6AB19AA18A917A850
:1004E300167F407E427D0F7C001201B7C374FF9FCD
:0904F300FF8FC543C408D2992211
:070003003098FDAF99C2988F
:01000A0022D3
:0808CA00C2998F993099FD22BB
:100560008F1D8E1C8D1B8C1A53B1FB53B2FB53B3E2
:10057000BF53B4BF75F85075C40853C4DFAB1DAA90
:100580001CA91BA81A7F407E427D0F7C001201B778
:10059000C374FF9FFF74FF9EFEE49DFDE49CFC7806
:1005A0000812025A8FC6AB1DAA1CA91BA81A7F40AD
:1005B0007E427D0F7C001201B7C374FF9FFF8FC581
:0405C00043C4082206
:0708D20030F8FDAF9AC2F8F7
:0108D90022FC
:0808DA00C2F98F9A30F9FD22EA
:100758008F488E478D468C45538EF7438901D28C3E
:10076800E4FFFEFDFCAB48AA47A946A845C3120210
:10077800496025758A7E758CFF308DFDC28DE548F0
:1007880024FFF548E54734FFF547E54634FFF546CD
:0B079800E54534FFF54580C8C28C2207
:1007A3008F158E148D138C12538EF7438901D28CBF
:1007B300E4FFFEFDFCAB15AA14A913A812C3120291
:1007C300496025758ACA758CFA308DFDC28DE51591
:1007D30024FFF515E51434FFF514E51334FFF51381
:0B07E300E51234FFF51280C8C28C2222
:1007EE008F4C8E4B8D4A8C49538EEF438910D28E8F
:1007FE00E4FFFEFDFCAB4CAA4BA94AA849C312026A
:10080E00496025758BEA758DCB308FFDC28FE54C17
:10081E0024FFF54CE54B34FFF54BE54A34FFF54A22
:0B082E00E54934FFF54980C8C28E2266
:100670008F508E4F8D4E8C4D53C9BF53C9DF43C928
:1006800010D2CAE4FFFEFDFCAB50AA4FA94EA84D04
:10069000C3120249602575CC3075CDF830CFFDC24C
:1006A000CFE55024FFF550E54F34FFF54FE54E34CC
:0E06B000FFF54EE54D34FFF54D80C8C2CA225D
:1006BE008F548E538D528C5175C40743C408E4FF7A
:1006CE00FEFDFCAB54AA53A952A851C312024960B5
:1006DE002875C52C75C6CFE5C430E4FB53C4EFE5D1
:1006EE005424FFF554E55334FFF553E55234FFF52A
:0D06FE0052E55134FFF55180C553C4F72279
:10070B008F588E578D568C5575C40743C408E4FF1C
:10071B00FEFDFCAB58AA57A956A855C31202496057
:10072B002875C5D875C6FFE5C430E4FB53C4EFE5A7
:10073B005824FFF558E55734FFF557E55634FFF5C8
:0D074B0056E55534FFF55580C553C4F7221F
:03000000020407F0
:0C040700787FE4F6D8FD75815802044EA1
:10017B0075F008758200EF2FFFEE33FECD33CDCC3B
:10018B0033CCC58233C5829BED9AEC99E5829840BE
:10019B000CF582EE9BFEED9AFDEC99FC0FD5F0D69B
:1001AB00E4CEFBE4CDFAE4CCF9A88222B800C1B9C5
:1001BB000059BA002DEC8BF084CFCECDFCE5F0CB03
:1001CB00F97818EF2FFFEE33FEED33FDEC33FCEB3C
:1001DB0033FB10D703994004EB99FB0FD8E5E4F9F7
:1001EB00FA227818EF2FFFEE33FEED33FDEC33FCE4
:1001FB00C933C910D7059BE99A4007EC9BFCE99AD8
:10020B00F90FD8E0E4C9FAE4CCFB2275F010EF2F1C
:10021B00FFEE33FEED33FDCC33CCC833C810D7071C
:10022B009BEC9AE899400AED9BFDEC9AFCE899F857
:0E023B000FD5F0DAE4CDFBE4CCFAE4C8F922EA
:10024900EB9FF5F0EA9E42F0E99D42F0E89C45F00B
:010259002282
:10025A00E8600FECC313FCED13FDEE13FEEF13FF82
:03026A00D8F122A6
:1004130002061CE493A3F8E493A34003F68001F2DD
:1004230008DFF48029E493A3F85407240CC8C333EA
:10043300C4540F4420C8834004F456800146F6DFB9
:10044300E4800B01020408102040809005C4E47E80
:10045300019360BCA3FF543F30E509541FFEE493AE
:10046300A360010ECF54C025E060A840B8E493A375
:10047300FAE493A3F8E493A3C8C582C8CAC583CAA0
:10048300F0A3C8C582C8CAC583CADFE9DEE780BE58
:01061B0000DE
:00000001FF
